:100000000C9434000C9451000C9451000C94510049
:100010000C9451000C9451000C9451000C9451001C
:100020000C9451000C9451000C9451000C9451000C
:100030000C9451000C9451000C9451000C945100FC
:100040000C9451000C9451000C9451000C945100EC
:100050000C9451000C9451000C9451000C945100DC
:100060000C9451000C94510011241FBECFEFD8E026
:10007000DEBFCDBF13E0A0E0B1E0E0E2FCE002C0F3
:1000800005900D92AA38B107D9F724E0AAE8B3E0A9
:1000900001C01D92AA38B207E1F70E941F020C941A
:1000A0000E060C9400000F931F93CF93DF93CDB7F0
:1000B000DEB78F8198859F938F9380E091E09F9327
:1000C0008F9381E08F931F920AE813E01F930F93A1
:1000D0000E94EA02F80101900020E9F73197CF0170
:1000E0008A58934060E071E0681B790B9E01255FA0
:1000F0003F4F49855A8586579C4F0E941A03C80175
:100100000E9400020FB6F894DEBF0FBECDBFDF9194
:10011000CF911F910F9108952A98019709F42A9A77
:1001200080E090E008955C985C9A5C9880E090E0B4
:100130000895817099270E948C00892B89F083E0B3
:1001400091E09F938F9388E291E09F938F930E9419
:1001500053000F900F900F900F9081E090E0089562
:100160000E949300892B89F081E391E09F938F9304
:1001700088E291E09F938F930E9453000F900F901D
:100180000F900F9082E090E0089580E090E0089555
:100190000F931F93CF93DF93009719F061157105AB
:1001A00089F48EE491E09F938F9388E291E09F938E
:1001B0008F930E9453000F900F900F900F9081E04B
:1001C00090E026C08B0101501109660F771FEC01EA
:1001D000C60FD71F17FD1AC09A918A910E949900E5
:1001E000892B89F087E791E09F938F9388E291E0D4
:1001F0009F938F930E9453000F900F900F900F903A
:1002000082E090E005C001501109E4CF80E090E069
:10021000DF91CF911F910F910895CF93DF9300D07D
:1002200000D000D0CDB7DEB7229A549A2A985C98B5
:100230001A8219821C821B821E821D8263E070E07A
:10024000CE0101960E94C800892B89F08CE991E0CB
:100250009F938F9388E291E09F938F930E94530026
:100260000F900F900F900F9081E090E002C080E01F
:1002700090E026960FB6F894DEBF0FBECDBFDF919B
:10028000CF910895389839983A98409A419A429A6D
:1002900080E090E008950F931F93CF93DF93EC01DC
:1002A000DF93CF9387EB91E09F938F9301ED11E064
:1002B0001F930F930E9453000F900F900F900F9079
:1002C0000F900F90C130D10509F1E8F0C230D1058F
:1002D00011F586B182FB882780F91F928F9389EDF3
:1002E00091E09F938F931F930F930E94530086B1C9
:1002F00082FB882780F990E00F900F900F900F906D
:100300000F900F901CC086B1817003C086B1869596
:10031000817090E014C0DF93CF9383EE91E09F93C0
:100320008F9388E291E09F938F930E9453000F90E8
:100330000F900F900F900F900F908FEF9FEFDF9126
:10034000CF911F910F910895EF92FF920F931F93FA
:10035000CF93DF93EC01892B89F48BE092E09F939C
:100360008F9388E291E09F938F930E9453000F90A8
:100370000F900F900F9082E090E02DC080E090E011
:100380000E944B017C0181E090E00E944B018C01B6
:1003900082E090E00E944B01F7FC04C017FD02C010
:1003A00097FF11C081E392E09F938F9388E291E0E1
:1003B0009F938F930E9453000F900F900F900F9078
:1003C00081E090E008C0F982E8821B830A839D8364
:1003D0008C8380E090E0DF91CF911F910F91FF908F
:1003E000EF9008958091C00087FFFCCF8091C600F8
:1003F00008959091C00095FFFCCF8093C6000895AA
:10040000CF93DF93EC018991882319F00E94F901C1
:10041000FACFDF91CF9108950F931F93072F182FD5
:10042000292F33270093C5006093C40088E180938F
:10043000C1008EE08093C2001F910F910895CF9369
:10044000DF9300D000D000D0CDB7DEB767E670E014
:1004500080E090E00E940C028DE692E09F938F93E3
:1004600001ED11E01F930F930E9453000E940D01B4
:100470000F900F900F900F90892B39F485E892E040
:100480009F938F931F930F9308C08BEA92E09F93E3
:100490008F9388E291E09F938F930E9453000F9077
:1004A0000F900F900F900E944201892B39F48DEC30
:1004B00092E09F938F9381ED91E006C080EF92E0F0
:1004C0009F938F9388E291E09F938F930E945300B4
:1004D0000F900F900F900F909E012F5F3F4F69017B
:1004E00086E0F90111928A95E9F7AA24AA94BA2C18
:1004F0004FE0242E43E0342E53E2452E53E0552E98
:100500006BE2662E63E0762E71EDE72E71E0F72E3A
:10051000E9E48E2EE3E09E2EC6010E94A401892B01
:10052000B1F429813A810B811C81000F111FC80190
:10053000822B932B0D811E81000F111F000F111FA5
:10054000082B192BA016B10671F45801E5CF3F9284
:100550002F925F924F920E9453000F900F900F9036
:100560000F908501F2CF1F930F931F930F937F92EC
:100570006F92FF92EF920E9453008E818F938D8134
:100580008F938C818F938B818F938A818F938981B5
:100590008F939F928F92FF92EF920E94530063E09D
:1005A00070E0C6010E94C8000FB6F894DEBF0FBE0F
:1005B000CDBF892B51F280E693E09F938F9328E281
:1005C00031E03F932F930E9453000F900F900F90B4
:1005D0000F90BBCFAEE0B0E0E0EFF2E00C94E505A9
:1005E0000D891E898F89988D26E02C831A830983B3
:1005F00097FF02C080E090E801979E838D83AE0153
:10060000455E5F4F698D7A8DCE0101960E9446034B
:100610004D815E8157FD0AC02F81388542175307EF
:100620000CF49A01F801E20FF31F10822E96E4E019
:100630000C940106AEE0B0E0E0E2F3E00C94E505D6
:100640008C01FA0186E08C831A83098377FF02C04C
:1006500060E070E8CB0101979E838D83A901BF0103
:10066000CE0101960E9446034D815E8157FD0AC06E
:100670002F813885421753070CF49A01F801E20FD5
:10068000F31F10822E96E4E00C940106ABE0B0E07C
:10069000ECE4F3E00C94D7056C017B018A01FC01CA
:1006A00017821682838181FFCCC1CE0101963C0165
:1006B000F6019381F70193FD859193FF81917F016D
:1006C000882309F4BAC1853239F493FD859193FFEB
:1006D00081917F01853229F4B60190E00E943D05A9
:1006E000E7CF912C212C312CFFE1F315D8F08B3280
:1006F00079F038F4803279F08332A1F4232D20612F
:100700001DC08D3261F0803369F4232D216016C045
:10071000832D8260382EE32DE4603E2E2AC0F32D17
:10072000F8601DC037FC2DC020ED280F2A3040F0A6
:100730008E32B9F436FC81C1232D2064322E19C0CB
:1007400036FE06C08AE0989E200D1124922E11C01C
:10075000EAE02E9E200D1124222EF32DF0623F2E72
:1007600008C08C3621F4832D8068382E02C088366C
:1007700041F4F70193FD859193FF81917F018111F0
:10078000B3CF982F9F7D9554933028F40C5F1F4F63
:100790009FE399830DC0833631F0833771F0833541
:1007A00009F059C021C0F801808189830E5F1F4F75
:1007B00088248394912C530113C02801F2E04F0E3A
:1007C000511CF801A080B18036FE03C0692D70E095
:1007D00002C06FEF7FEFC5010E9432054C0182011C
:1007E000F32DFF773F2E16C0280122E0420E511C48
:1007F000F801A080B18036FE03C0692D70E002C010
:100800006FEF7FEFC5010E9427054C01F32DF068C3
:100810003F2E820133FC1BC0822D90E08816990682
:10082000B0F4B60180E290E00E943D052A94F4CF36
:10083000F50137FC859137FE81915F01B60190E0AB
:100840000E943D0521102A9421E0821A910881140A
:10085000910471F7E8C0843611F0893641F5F8014A
:1008600037FE07C060817181828193810C5F1F4FC9
:1008700008C060817181072E000C880B990B0E5FF8
:100880001F4FF32DFF763F2E97FF09C0909580955F
:10089000709561957F4F8F4F9F4FF0683F2E2AE0F4
:1008A00030E0A3010E947905882E861845C085375F
:1008B00031F4232D2F7EB22E2AE030E025C0932D77
:1008C000997FB92E8F36C1F018F4883579F0B5C00C
:1008D000803719F0883721F0B0C0E92FE061BE2ED3
:1008E000B4FE0DC0FB2DF460BF2E09C034FE0AC05B
:1008F000292F2660B22E06C028E030E005C020E196
:1009000030E002C020E132E0F801B7FE07C06081AC
:100910007181828193810C5F1F4F06C0608171815C
:1009200080E090E00E5F1F4FA3010E947905882EA2
:100930008618FB2DFF773F2E36FE0DC0232D2E7F10
:10094000A22E891458F434FE0BC032FC09C0832D4A
:100950008E7EA82E05C0B82CA32C03C0B82C01C0D5
:10096000B92CA4FE0FC0FE01E80DF11D808180337B
:1009700021F49A2D997EA92E09C0A2FE06C0B39437
:10098000B39404C08A2D867809F0B394A3FC11C0F7
:10099000A0FE06C0B21488F4280C922C9B180EC03E
:1009A000B21460F4B60180E290E00E943D05B39479
:1009B000F7CFB21418F42B1802C0982C212CA4FEE7
:1009C00010C0B60180E390E00E943D05A2FE17C072
:1009D000A1FC03C088E790E002C088E590E0B60182
:1009E0000CC08A2D867859F0A1FE02C08BE201C0AE
:1009F00080E2A7FC8DE2B60190E00E943D058914DB
:100A000038F4B60180E390E00E943D059A94F7CF58
:100A10008A94F301E80DF11D8081B60190E00E94F7
:100A20003D058110F5CF222009F442CEB60180E2C7
:100A300090E00E943D052A94F6CFF60186819781C9
:100A400002C08FEF9FEF2B96E2E10C94F305FC01BF
:100A50000590615070400110D8F7809590958E0FE9
:100A60009F1F0895FC016150704001900110D8F75C
:100A7000809590958E0F9F1F08950F931F93CF938E
:100A8000DF93FB01238121FD03C08FEF9FEF2CC07B
:100A900022FF16C0468157812481358142175307B2
:100AA00044F4A081B1819D012F5F3F4F31832083AA
:100AB0008C93268137812F5F3F4F3783268314C065
:100AC0008B01EC01FB010084F185E02D0995892B58
:100AD000E1F6D80116968D919C911797019617967D
:100AE0009C938E931697CE01DF91CF911F910F911A
:100AF0000895FA01AA27283051F1203181F1E894B4
:100B00006F936E7F6E5F7F4F8F4F9F4FAF4FB1E000
:100B10003ED0B4E03CD0670F781F891F9A1FA11DFB
:100B2000680F791F8A1F911DA11D6A0F711D811DFC
:100B3000911DA11D20D009F468943F912AE0269FC1
:100B400011243019305D3193DEF6CF010895462F20
:100B50004770405D4193B3E00FD0C9F7F6CF462F01
:100B60004F70405D4A3318F0495D31FD405241936A
:100B700002D0A9F7EACFB4E0A69597958795779527
:100B80006795BA95C9F700976105710508959B01AE
:100B9000AC010A2E06945795479537952795BA9537
:100BA000C9F7620F731F841F951FA01D08952F9210
:100BB0003F924F925F926F927F928F929F92AF92ED
:100BC000BF92CF92DF92EF92FF920F931F93CF933A
:100BD000DF93CDB7DEB7CA1BDB0B0FB6F894DEBFD1
:100BE0000FBECDBF09942A88398848885F846E84F7
:100BF0007D848C849B84AA84B984C884DF80EE8041
:100C0000FD800C811B81AA81B981CE0FD11D0FB649
:100C1000F894DEBF0FBECDBFED010895F894FFCF6D
:100C2000257300536869667420726567697374651B
:100C3000722073657420646174612070696E20662F
:100C400061696C65642E0A005B4552524F525D200B
:100C500000536869667420726567697374657220F1
:100C60006369636C65206661696C65640A00496E3E
:100C700076616C696420706172616D657465727310
:100C800020666F722053484946545F707573685FE1
:100C900073746174650A0053484946545F707573F4
:100CA00068206661696C656420647572696E67208E
:100CB000737461746520707573680A00536869669F
:100CC0007420726567697374657220696E69742037
:100CD0006661696C6564004C4620676574207374B6
:100CE000617465206F6620696E6465782025750AD9
:100CF000005B494E464F5D200076616C756520258E
:100D0000750A00496E76616C6964206C696E6520B5
:100D1000666F6C6C6F7765722073656E736F72208F
:100D2000696E6465783A2025750A004E554C4C2052
:100D3000706F696E7465722070617373656420747E
:100D40006F204C465F6765745F7374617465730AE6
:100D50000052656164696E67206C696E6520736519
:100D60006E736F7220737461746573206661696C51
:100D70006564202D2073656E736F72206572726FCB
:100D800072732064657465637465640A0055534129
:100D9000525420776F726B696E672120486F6F72B3
:100DA0006179210A00536869667420726567697306
:100DB0007465722044445220736574757020737595
:100DC000636365737366756C2E0A00536869667495
:100DD000207265676973746572204444522073659C
:100DE000747570204641494C4544210A004C696E97
:100DF000652073656E736F7220444452207365746E
:100E00007570207375636365737366756C2E0A0065
:100E10004C696E652073656E736F72204444522076
:100E20007365747570204641494C4544210A00534E
:100E3000656E736F722072656164206661696C65AE
:100E4000640A005B5741524E5D2000456967656E3C
:100E500076616C7565733A20286F6C64292575205E
:100E6000286E65772925750A0053656E736F727356
:100E70003A205B25752C2025752C2025755D0A00F0
:100E80004661696C656420746F20707573682073A7
:100E9000746174657320746F20736869667420725E
:0A0EA000656769737465720A00004B
:00000001FF
