:100000000C9434000C9449000C9449000C94490061
:100010000C9449000C9449000C9449000C9449003C
:100020000C9449000C9449000C9449000C9449002C
:100030000C9449000C9449000C9449000C9449001C
:100040000C9449000C9449000C9449000C9449000C
:100050000C9449000C9449000C9449000C944900FC
:100060000C9449000C94490011241FBECFEFD8E036
:10007000DEBFCDBF12E0A0E0B1E0E8E7F2E002C0F1
:1000800005900D92A037B107D9F70E94FA000C94A1
:100090003A010C9400002A98019709F42A9A80E00A
:1000A00090E008955C985C9A5C9880E090E00895F8
:1000B000817099270E944B00892B39F080E091E0F4
:1000C0000E94DB0081E090E008950E945200892B9D
:1000D00039F08DE291E00E94DB0082E090E008952B
:1000E00080E090E008950F931F93CF93DF930097E4
:1000F00019F06115710539F482E591E00E94DB0089
:1001000081E090E020C08B0101501109660F771F3C
:10011000EC01C60FD71F17FD10C09A918A910E945B
:100120005800892B39F083E891E00E94DB0082E0DF
:1001300090E009C001501109EECF80EB91E00E94E0
:10014000DB0080E090E0DF91CF911F910F91089547
:10015000CF93DF93229A549A2A985C9880E090E09B
:100160000E945800EC0180E090E00E945800C82BEB
:10017000D92B80E090E00E9458008C2B9D2B892B7E
:1001800039F087ED91E00E94DB0081E090E002C051
:1001900080E090E0DF91CF9108958091C00087FFCB
:1001A000FCCF8091C60008959091C00095FFFCCFD0
:1001B0008093C6000895CF93DF93EC018991882343
:1001C00019F00E94D400FACFDF91CF9108950F93D8
:1001D0001F93072F182F292F33270093C5006093F3
:1001E000C40088E18093C1008EE08093C2001F911B
:1001F0000F91089567E670E080E090E00E94E700CC
:100200008AEF91E00E94DB000E94A800892B19F47C
:1002100089E192E002C086E492E00E94DB0081E086
:1002200090E00E94580080E090E00E94580081E039
:1002300090E00E9458002FEF83ED90E32150804022
:100240009040E1F700C0000081E090E00E9458007B
:1002500081E090E00E94580081E090E00E94580008
:100260002FEF83ED90E3215080409040E1F700C0F4
:080270000000D5CFF894FFCF88
:100278005B4552524F525D2053686966742072651F
:100288006769737465722073657420646174612092
:1002980070696E206661696C65642E0A005B455260
:1002A800524F525D2053686966742072656769739E
:1002B800746572206369636C65206661696C656446
:1002C8000A005B4552524F525D20496E76616C6957
:1002D8006420706172616D657465727320666F72F7
:1002E8002053484946545F707573685F737461742E
:1002F800650A005B4552524F525D205348494654A7
:100308005F70757368206661696C656420647572D6
:10031800696E6720737461746520707573680A006C
:100328005B494E464F5D2053746174652070757348
:1003380068656420746F20736869667420726567E5
:1003480069737465720A005B4552524F525D2053BF
:100358006869667420726567697374657220696E6E
:100368006974206661696C6564005B494E464F5D3F
:1003780020555341525420776F726B696E67212064
:10038800486F6F726179210A005B494E464F5D20C4
:10039800536869667420726567697374657220446E
:1003A8004452207365747570207375636365737345
:1003B80066756C2E0A005B4552524F525D20536899
:1003C8006966742072656769737465722044445263
:1003D800207365747570204641494C4544210A00D4
:00000001FF
