:100000000C9434000C9451000C9451000C94510049
:100010000C9451000C9451000C9451000C9451001C
:100020000C9451000C9451000C9451000C9451000C
:100030000C9451000C9451000C9451000C945100FC
:100040000C9451000C9451000C9451000C945100EC
:100050000C9451000C9451000C9451000C945100DC
:100060000C9451000C94510011241FBECFEFD8E026
:10007000DEBFCDBF13E0A0E0B1E0ECE2FBE002C0E8
:1000800005900D92A234B107D9F724E0A2E4B3E0C1
:1000900001C01D92A234B207E1F70E94EF010C9457
:1000A00094050C9400000F931F93CF93DF93CDB76B
:1000B000DEB78F8198859F938F9380E091E09F9327
:1000C0008F9381E08F931F9202E413E01F930F93AD
:1000D0000E947002F80101900020E9F73197CF01EA
:1000E0008254934060E071E0681B790B9E01255FAC
:1000F0003F4F49855A858E5B9C4F0E94A002C801E4
:100100000E94D0010FB6F894DEBF0FBECDBFDF91C5
:10011000CF911F910F9108952A98019709F42A9A77
:1001200080E090E008955C985C9A5C9880E090E0B4
:100130000895817099270E948C00892B89F083E0B3
:1001400091E09F938F9388E291E09F938F930E9419
:1001500053000F900F900F900F9081E090E0089562
:100160000E949300892B89F081E391E09F938F9304
:1001700088E291E09F938F930E9453000F900F901D
:100180000F900F9082E090E0089580E090E0089555
:100190000F931F93CF93DF93009719F061157105AB
:1001A00089F48EE491E09F938F9388E291E09F938E
:1001B0008F930E9453000F900F900F900F9081E04B
:1001C00090E026C08B0101501109660F771FEC01EA
:1001D000C60FD71F17FD1AC09A918A910E949900E5
:1001E000892B89F087E791E09F938F9388E291E0D4
:1001F0009F938F930E9453000F900F900F900F903A
:1002000082E090E005C001501109E4CF80E090E069
:10021000DF91CF911F910F910895CF93DF9300D07D
:1002200000D000D0CDB7DEB7229A549A2A985C98B5
:100230001A8219821C821B821E821D8263E070E07A
:10024000CE0101960E94C800892B89F08CE991E0CB
:100250009F938F9388E291E09F938F930E94530026
:100260000F900F900F900F9081E090E002C080E01F
:1002700090E026960FB6F894DEBF0FBECDBFDF919B
:10028000CF910895389839983A98409A419A429A6D
:1002900080E090E008958130910561F040F0823077
:1002A000910569F486B182FB882780F906C086B182
:1002B000817003C086B18695817090E008959F9308
:1002C0008F9387EB91E09F938F9388E291E09F93C8
:1002D0008F930E9453000F900F900F900F900F90EC
:1002E0000F908FEF9FEF0895EF92FF920F931F9360
:1002F000CF93DF93EC01892B89F48FED91E09F93ED
:100300008F9388E291E09F938F930E9453000F9008
:100310000F900F900F9082E090E02DC080E090E071
:100320000E944B017C0181E090E00E944B018C0116
:1003300082E090E00E944B01F7FC04C017FD02C070
:1003400097FF11C085E092E09F938F9388E291E040
:100350009F938F930E9453000F900F900F900F90D8
:1003600081E090E008C0F982E8821B830A839D83C4
:100370008C8380E090E0DF91CF911F910F91FF90EF
:10038000EF9008958091C00087FFFCCF8091C60058
:1003900008959091C00095FFFCCF8093C60008950A
:1003A000CF93DF93EC018991882319F00E94C90152
:1003B000FACFDF91CF9108950F931F93072F182F36
:1003C000292F33270093C5006093C40088E18093F0
:1003D000C1008EE08093C2001F910F910895CF93CA
:1003E000DF9300D000D000D0CDB7DEB767E670E075
:1003F00080E090E00E94DC0181E492E09F938F9383
:1004000009E512E01F930F930E9453000E940D0113
:100410000F900F900F900F90892B39F481E692E0A6
:100420009F938F931F930F9308C087E892E09F9349
:100430008F9388E291E09F938F930E9453000F90D7
:100440000F900F900F900E944201892B39F489EA96
:1004500092E09F938F9389E592E006C08CEC92E046
:100460009F938F9388E291E09F938F930E94530014
:100470000F900F900F900F908E010F5F1F4F86E02F
:10048000F80111928A95E9F784E1C82E83E0D82E0D
:100490009AE3E92E93E0F92E2BEEA22E22E0B22E63
:1004A00038E2832E31E0932EC8010E947401892B1B
:1004B00061F463E070E0C8010E94C800892BA1F3D9
:1004C000BF92AF929F928F9204C0DF92CF92FF9221
:1004D000EF920E9453000F900F900F900F90E4CF77
:1004E000AEE0B0E0E6E7F2E00C946B050D891E8902
:1004F0008F89988D26E02C831A83098397FF02C089
:1005000080E090E801979E838D83AE01455E5F4F4A
:10051000698D7A8DCE0101960E94CC024D815E815B
:1005200057FD0AC02F813885421753070CF49A01F2
:10053000F801E20FF31F10822E96E4E00C94870579
:10054000AEE0B0E0E6EAF2E00C946B058C01FA0153
:1005500086E08C831A83098377FF02C060E070E82D
:10056000CB0101979E838D83A901BF01CE01019626
:100570000E94CC024D815E8157FD0AC02F813885D3
:10058000421753070CF49A01F801E20FF31F10828F
:100590002E96E4E00C948705ABE0B0E0E2EDF2E0EB
:1005A0000C945D056C017B018A01FC0117821682A7
:1005B000838181FFCCC1CE0101963C01F60193817C
:1005C000F70193FD859193FF81917F01882309F4C1
:1005D000BAC1853239F493FD859193FF81917F01F2
:1005E000853229F4B60190E00E94C304E7CF912C34
:1005F000212C312CFFE1F315D8F08B3279F038F44F
:10060000803279F08332A1F4232D20611DC08D3218
:1006100061F0803369F4232D216016C0832D826040
:10062000382EE32DE4603E2E2AC0F32DF8601DC065
:1006300037FC2DC020ED280F2A3040F08E32B9F45F
:1006400036FC81C1232D2064322E19C036FE06C02F
:100650008AE0989E200D1124922E11C0EAE02E9E71
:10066000200D1124222EF32DF0623F2E08C08C366F
:1006700021F4832D8068382E02C0883641F4F701BA
:1006800093FD859193FF81917F018111B3CF982FC5
:100690009F7D9554933028F40C5F1F4F9FE39983FF
:1006A0000DC0833631F0833771F0833509F059C0BE
:1006B00021C0F801808189830E5F1F4F88248394B5
:1006C000912C530113C02801F2E04F0E511CF80188
:1006D000A080B18036FE03C0692D70E002C06FEFCC
:1006E0007FEFC5010E94B8044C018201F32DFF7712
:1006F0003F2E16C0280122E0420E511CF801A080B6
:10070000B18036FE03C0692D70E002C06FEF7FEF4D
:10071000C5010E94AD044C01F32DF0683F2E82010B
:1007200033FC1BC0822D90E088169906B0F4B60108
:1007300080E290E00E94C3042A94F4CFF50137FCD4
:10074000859137FE81915F01B60190E00E94C3045C
:1007500021102A9421E0821A91088114910471F7E2
:10076000E8C0843611F0893641F5F80137FE07C03C
:1007700060817181828193810C5F1F4F08C060810D
:100780007181072E000C880B990B0E5F1F4FF32D04
:10079000FF763F2E97FF09C09095809570956195E3
:1007A0007F4F8F4F9F4FF0683F2E2AE030E0A3012C
:1007B0000E94FF04882E861845C0853731F4232D0A
:1007C0002F7EB22E2AE030E025C0932D997FB92EDE
:1007D0008F36C1F018F4883579F0B5C0803719F03C
:1007E000883721F0B0C0E92FE061BE2EB4FE0DC005
:1007F000FB2DF460BF2E09C034FE0AC0292F2660ED
:10080000B22E06C028E030E005C020E130E002C092
:1008100020E132E0F801B7FE07C06081718182817A
:1008200093810C5F1F4F06C06081718180E090E072
:100830000E5F1F4FA3010E94FF04882E8618FB2D18
:10084000FF773F2E36FE0DC0232D2E7FA22E89145A
:1008500058F434FE0BC032FC09C0832D8E7EA82EC6
:1008600005C0B82CA32C03C0B82C01C0B92CA4FE21
:100870000FC0FE01E80DF11D8081803321F49A2D17
:10088000997EA92E09C0A2FE06C0B394B39404C0F9
:100890008A2D867809F0B394A3FC11C0A0FE06C08F
:1008A000B21488F4280C922C9B180EC0B21460F479
:1008B000B60180E290E00E94C304B394F7CFB21473
:1008C00018F42B1802C0982C212CA4FE10C0B601DD
:1008D00080E390E00E94C304A2FE17C0A1FC03C005
:1008E00088E790E002C088E590E0B6010CC08A2D50
:1008F000867859F0A1FE02C08BE201C080E2A7FC1D
:100900008DE2B60190E00E94C304891438F4B60168
:1009100080E390E00E94C3049A94F7CF8A94F30195
:10092000E80DF11D8081B60190E00E94C3048110A2
:10093000F5CF222009F442CEB60180E290E00E9479
:10094000C3042A94F6CFF6018681978102C08FEF07
:100950009FEF2B96E2E10C947905FC010590615024
:1009600070400110D8F7809590958E0F9F1F0895C5
:10097000FC016150704001900110D8F7809590956E
:100980008E0F9F1F08950F931F93CF93DF93FB014B
:10099000238121FD03C08FEF9FEF2CC022FF16C0E3
:1009A00046815781248135814217530744F4A08141
:1009B000B1819D012F5F3F4F318320838C9326812E
:1009C00037812F5F3F4F3783268314C08B01EC01A3
:1009D000FB010084F185E02D0995892BE1F6D80112
:1009E00016968D919C911797019617969C938E93CE
:1009F0001697CE01DF91CF911F910F910895FA01C3
:100A0000AA27283051F1203181F1E8946F936E7F4D
:100A10006E5F7F4F8F4F9F4FAF4FB1E03ED0B4E03E
:100A20003CD0670F781F891F9A1FA11D680F791F7F
:100A30008A1F911DA11D6A0F711D811D911DA11D90
:100A400020D009F468943F912AE0269F11243019A0
:100A5000305D3193DEF6CF010895462F4770405D3B
:100A60004193B3E00FD0C9F7F6CF462F4F70405DEA
:100A70004A3318F0495D31FD4052419302D0A9F745
:100A8000EACFB4E0A6959795879577956795BA953F
:100A9000C9F700976105710508959B01AC010A2E05
:100AA00006945795479537952795BA95C9F7620FDC
:100AB000731F841F951FA01D08952F923F924F9280
:100AC0005F926F927F928F929F92AF92BF92CF92DE
:100AD000DF92EF92FF920F931F93CF93DF93CDB7E7
:100AE000DEB7CA1BDB0B0FB6F894DEBF0FBECDBF5F
:100AF00009942A88398848885F846E847D848C8430
:100B00009B84AA84B984C884DF80EE80FD800C8138
:100B10001B81AA81B981CE0FD11D0FB6F894DEBF1B
:0C0B20000FBECDBFED010895F894FFCF8B
:100B2C002573005368696674207265676973746510
:100B3C00722073657420646174612070696E206624
:100B4C0061696C65642E0A005B4552524F525D2000
:100B5C0000536869667420726567697374657220E6
:100B6C006369636C65206661696C65640A00496E33
:100B7C0076616C696420706172616D657465727305
:100B8C0020666F722053484946545F707573685FD6
:100B9C0073746174650A0053484946545F707573E9
:100BAC0068206661696C656420647572696E672083
:100BBC00737461746520707573680A005368696694
:100BCC007420726567697374657220696E6974202C
:100BDC006661696C656400496E76616C6964206C51
:100BEC00696E6520666F6C6C6F7765722073656ECD
:100BFC00736F7220696E6465783A2025750A004E11
:100C0C00554C4C20706F696E7465722070617373F3
:100C1C00656420746F204C465F6765745F73746104
:100C2C007465730A0052656164696E67206C696E45
:100C3C00652073656E736F722073746174657320B5
:100C4C006661696C6564202D2073656E736F72200C
:100C5C006572726F72732064657465637465640A7F
:100C6C0000555341525420776F726B696E67212087
:100C7C00486F6F726179210A005B494E464F5D20C7
:100C8C0000536869667420726567697374657220B5
:100C9C004444522073657475702073756363657377
:100CAC007366756C2E0A00536869667420726567EA
:100CBC006973746572204444522073657475702096
:100CCC004641494C4544210A004C696E65207365C8
:100CDC006E736F7220444452207365747570207368
:100CEC0075636365737366756C2E0A004C696E656B
:100CFC002073656E736F7220444452207365747553
:100D0C0070204641494C4544210A004661696C6596
:100D1C006420746F207075736820737461746573CC
:100D2C0020746F20736869667420726567697374C8
:100D3C0065720A0053656E736F7220726561642070
:100D4C006661696C6564202D20736B697070696EC7
:100D5C0067207570646174650A005B5741524E5D83
:020D6C00200065
:00000001FF
