:100000000C9434000C9449000C9449000C94490061
:100010000C9449000C9449000C9449000C9449003C
:100020000C9449000C9449000C9449000C9449002C
:100030000C9449000C9449000C9449000C9449001C
:100040000C9449000C9449000C9449000C9449000C
:100050000C9449000C9449000C9449000C944900FC
:100060000C9449000C94490011241FBECFEFD8E036
:10007000DEBFCDBF12E0A0E0B1E0E8ECF2E002C0EC
:1000800005900D92AE39B107D9F70E9435010C9455
:1000900062010C9400002A98019709F42A9A80E0E2
:1000A00090E008955C985C9A5C9880E090E00895F8
:1000B000817099270E944B00892B39F080E091E0F4
:1000C0000E94160181E090E008950E945200892B61
:1000D00039F08DE291E00E94160182E090E00895EF
:1000E00080E090E008950F931F93CF93DF938B01EF
:1000F00001501109660F771FEC01C60FD71F17FDBE
:1001000010C09A918A910E945800892B39F082E59B
:1001100091E00E94160182E090E009C001501109AF
:10012000EECF8FE791E00E94160180E090E0DF9132
:10013000CF911F910F910895009729F061157105D6
:1001400011F00C94730086EA91E00E94160181E0A0
:1001500090E00895CF93DF9300D000D000D0CDB7CA
:10016000DEB7229A549A2A985C981A8219821C82C5
:100170001B821E821D8263E070E0CE0101960E9408
:100180007300009731F087ED91E00E94160181E045
:1001900090E026960FB6F894DEBF0FBECDBFDF917C
:1001A000CF9108958130910561F038F0029779F48C
:1001B0008BB183FB882780F908C08BB1869581704D
:1001C00004C08BB182FB882780F990E008958FEFFF
:1001D0009FEF0895FC01892B39F48AEF91E00E948A
:1001E000160182E090E008952BB19BB18BB126956A
:1001F00021702083118292FB992790F992831382B8
:1002000083FB882780F98483158280E090E008953D
:100210008091C00087FFFCCF8091C6000895909127
:10022000C00095FFFCCF8093C6000895CF93DF9365
:10023000EC018991882319F00E940F01FACFDF9118
:10024000CF9108950F931F93072F182F292F33272E
:100250000093C5006093C40088E18093C1008EE0E4
:100260008093C2001F910F910895CF93DF9300D028
:1002700000D000D0CDB7DEB767E670E080E090E058
:100280000E94220188E292E00E9416010E94AA00C8
:10029000892B19F487E492E002C084E792E00E947F
:1002A00016018E010F5F1F4F86E0F80111928A95AB
:1002B000E9F7C8010E94EA0063E070E0C8010E940B
:0802C0009C00F7CFF894FFCF7A
:1002C8005B4552524F525D205368696674207265CF
:1002D8006769737465722073657420646174612042
:1002E80070696E206661696C65642E0A005B455210
:1002F800524F525D2053686966742072656769734E
:10030800746572206369636C65206661696C6564F5
:100318000A005B4552524F525D2053484946545F8C
:1003280070757368206661696C65642064757269AC
:100338006E6720737461746520707573680A005B5A
:10034800494E464F5D20537461746520707573681B
:10035800656420746F2073686966742072656769C4
:10036800737465720A005B4552524F525D20496EA4
:1003780076616C696420706172616D657465727311
:1003880020666F722053484946545F707573685FE2
:1003980073746174650A005B4552524F525D205375
:1003A8006869667420726567697374657220696E1E
:1003B8006974206661696C6564005B4552524F52EE
:1003C8005D204E554C4C20706F696E7465722070BC
:1003D800617373656420746F204C465F6765745F52
:1003E8007374617465730A005B494E464F5D20550E
:1003F8005341525420776F726B696E672120486FA2
:100408006F726179210A005B494E464F5D2053683F
:100418006966742072656769737465722044445212
:10042800207365747570207375636365737366757F
:100438006C2E0A005B4552524F525D205368696624
:10044800742072656769737465722044445220731E
:0E04580065747570204641494C4544210A00E8
:00000001FF
