:100000000C9434000C9451000C9451000C94510049
:100010000C9451000C9451000C9451000C9451001C
:100020000C9451000C9451000C9451000C9451000C
:100030000C9451000C9451000C9451000C945100FC
:100040000C9451000C9451000C9451000C945100EC
:100050000C9451000C9451000C9451000C945100DC
:100060000C9451000C94510011241FBECFEFD8E026
:10007000DEBFCDBF14E0A0E0B1E0EEEFFBE002C0D8
:1000800005900D92A232B107D9F725E0A2E2B4E0C3
:1000900001C01D92A232B207E1F70E946E020C94D9
:1000A000FD050C9400000F931F93CF93DF93CDB702
:1000B000DEB78F8198859F938F9380E091E09F9327
:1000C0008F9381E08F931F9202E214E01F930F93AE
:1000D0000E94D902F80101900020E9F73197CF0181
:1000E0008252944060E071E0681B790B9E01255FAD
:1000F0003F4F49855A858E5D9B4F0E940903C80179
:100100000E944F020FB6F894DEBF0FBECDBFDF9145
:10011000CF911F910F9108952A98019709F42A9A77
:1001200083E091E09F938F938DE191E09F938F9374
:100130000E9453000F900F900F900F9080E090E07E
:1001400008955C985C9A5C9886E291E09F938F9307
:100150008DE191E09F938F930E9453000F900F9039
:100160000F900F9080E090E00895817099270E9491
:100170008C00892B89F082E491E09F938F9387E62E
:1001800091E09F938F930E9453000F900F900F90D8
:100190000F9081E090E008950E94A100892B89F0E2
:1001A00080E791E09F938F9387E691E09F938F93F1
:1001B0000E9453000F900F900F900F9082E090E0FC
:1001C000089580E090E008950F931F93CF93DF93FD
:1001D000009719F06115710589F48DE891E09F93FE
:1001E0008F9387E691E09F938F930E9453000F9027
:1001F0000F900F900F9081E090E034C08B01015080
:100200001109660F771FEC01C60FD71F17FD1AC023
:100210009A918A910E94B500892B89F086EB91E032
:100220009F938F9387E691E09F938F930E94530053
:100230000F900F900F900F9082E090E013C001504C
:100240001109E4CF8BED91E09F938F938DE191E0C5
:100250009F938F930E9453000F900F900F900F90D9
:1002600080E090E0DF91CF911F910F9108950F935F
:100270001F93CF93DF9300D000D000D0CDB7DEB76F
:10028000229A549A8BEF91E09F938F930DE111E0A6
:100290001F930F930E9453002A985C9887E292E084
:1002A0009F938F931F930F930E9453001A8219827A
:1002B0001C821B821E821D8263E070E0CE010196CB
:1002C0000E94E4000FB6F894DEBF0FBECDBF892BAD
:1002D00089F081E692E09F938F9387E691E09F9368
:1002E0008F930E9453000F900F900F900F9081E01A
:1002F00090E002C080E090E026960FB6F894DEBF52
:100300000FBECDBFDF91CF911F910F910895389807
:1003100039983A98409A419A429A80E090E008953C
:100320008130910561F040F08230910569F486B129
:1003300082FB882780F906C086B1817003C086B130
:100340008695817090E008959F938F938CE792E05B
:100350009F938F9387E691E09F938F930E94530022
:100360000F900F900F900F900F900F908FEF9FEFC7
:100370000895AF92BF92CF92DF92EF92FF920F93C8
:100380001F93CF93DF938C01892B89F484EA92E049
:100390009F938F9387E691E09F938F930E945300E2
:1003A0000F900F900F900F9082E090E05FC08AEC6A
:1003B00092E09F938F93CDE1D1E0DF93CF930E94A2
:1003C000530080E090E00E9490015C0181E090E0A9
:1003D0000E9490016C0182E090E00E9490017C01FB
:1003E000BF92AF9283EF92E09F938F93DF93CF936F
:1003F0000E945300DF92CF9282E093E09F938F930D
:10040000DF93CF930E945300FF92EF9281E193E03C
:100410009F938F93DF93CF930E9453008DB79EB726
:1004200046960FB6F8949EBF0FBE8DBFB7FC04C0B2
:10043000D7FC02C0F7FE11C080E293E09F938F9338
:1004400087E691E09F938F930E9453000F900F9047
:100450000F900F9081E090E009C0F801B182A08276
:10046000D382C282F582E48280E090E0DF91CF9176
:100470001F910F91FF90EF90DF90CF90BF90AF90C2
:1004800008958091C00087FFFCCF8091C600089539
:100490009091C00095FFFCCF8093C6000895CF9344
:1004A000DF93EC018991882319F00E944802FACF6A
:1004B000DF91CF9108950F931F93072F182F292FA6
:1004C00033270093C5006093C40088E18093C10086
:1004D0008EE08093C2001F910F910895CF93DF9318
:1004E00000D000D000D0CDB7DEB767E670E080E086
:1004F00090E00E945B028CE593E09F938F9304E76A
:1005000013E01F930F930E9453000E9437010F9036
:100510000F900F900F90892B39F48CE793E09F9305
:100520008F931F930F9308C082EA93E09F938F935A
:1005300087E691E09F938F930E9453000F900F9056
:100540000F900F900E948701892B39F484EC93E07F
:100550009F938F9384E793E006C087EE93E09F9389
:100560008F9387E691E09F938F930E9453000F90A3
:100570000F900F900F90CE0101966C0186E0F6016E
:1005800011928A95E9F786E0E82E84E0F82E0AE1D8
:1005900014E0C6010E94B901892BD9F3FF92EF92B2
:1005A0001F930F930E9453000F900F900F900F9086
:1005B000F0CFAEE0B0E0EFEDF2E00C94D4050D89A1
:1005C0001E898F89988D26E02C831A83098397FFD3
:1005D00002C080E090E801979E838D83AE01455E66
:1005E0005F4F698D7A8DCE0101960E9435034D8152
:1005F0005E8157FD0AC02F813885421753070CF4DE
:100600009A01F801E20FF31F10822E96E4E00C9499
:10061000F005AEE0B0E0EFE0F3E00C94D4058C011F
:10062000FA0186E08C831A83098377FF02C060E0B9
:1006300070E8CB0101979E838D83A901BF01CE0194
:1006400001960E9435034D815E8157FD0AC02F81BE
:100650003885421753070CF49A01F801E20FF31F93
:1006600010822E96E4E00C94F005ABE0B0E0EBE3F2
:10067000F3E00C94C6056C017B018A01FC01178232
:100680001682838181FFCCC1CE0101963C01F60127
:100690009381F70193FD859193FF81917F018823D9
:1006A00009F4BAC1853239F493FD859193FF8191A4
:1006B0007F01853229F4B60190E00E942C05E7CF36
:1006C000912C212C312CFFE1F315D8F08B3279F0ED
:1006D00038F4803279F08332A1F4232D20611DC0DB
:1006E0008D3261F0803369F4232D216016C0832D93
:1006F0008260382EE32DE4603E2E2AC0F32DF86090
:100700001DC037FC2DC020ED280F2A3040F08E325E
:10071000B9F436FC81C1232D2064322E19C036FE77
:1007200006C08AE0989E200D1124922E11C0EAE0A6
:100730002E9E200D1124222EF32DF0623F2E08C094
:100740008C3621F4832D8068382E02C0883641F41F
:10075000F70193FD859193FF81917F018111B3CFC3
:10076000982F9F7D9554933028F40C5F1F4F9FE383
:1007700099830DC0833631F0833771F0833509F0EA
:1007800059C021C0F801808189830E5F1F4F8824E2
:100790008394912C530113C02801F2E04F0E511C99
:1007A000F801A080B18036FE03C0692D70E002C060
:1007B0006FEF7FEFC5010E9421054C018201F32DEF
:1007C000FF773F2E16C0280122E0420E511CF8018F
:1007D000A080B18036FE03C0692D70E002C06FEFCB
:1007E0007FEFC5010E9416054C01F32DF0683F2EE6
:1007F000820133FC1BC0822D90E088169906B0F46C
:10080000B60180E290E00E942C052A94F4CFF50115
:1008100037FC859137FE81915F01B60190E00E941F
:100820002C0521102A9421E0821A91088114910448
:1008300071F7E8C0843611F0893641F5F80137FECA
:1008400007C060817181828193810C5F1F4F08C056
:1008500060817181072E000C880B990B0E5F1F4F72
:10086000F32DFF763F2E97FF09C0909580957095E8
:1008700061957F4F8F4F9F4FF0683F2E2AE030E009
:10088000A3010E946805882E861845C0853731F47B
:10089000232D2F7EB22E2AE030E025C0932D997FA4
:1008A000B92E8F36C1F018F4883579F0B5C080378D
:1008B00019F0883721F0B0C0E92FE061BE2EB4FEF8
:1008C0000DC0FB2DF460BF2E09C034FE0AC0292FD5
:1008D0002660B22E06C028E030E005C020E130E0FE
:1008E00002C020E132E0F801B7FE07C060817181EB
:1008F000828193810C5F1F4F06C06081718180E00F
:1009000090E00E5F1F4FA3010E946805882E861895
:10091000FB2DFF773F2E36FE0DC0232D2E7FA22EFE
:10092000891458F434FE0BC032FC09C0832D8E7E2E
:10093000A82E05C0B82CA32C03C0B82C01C0B92C1C
:10094000A4FE0FC0FE01E80DF11D8081803321F46B
:100950009A2D997EA92E09C0A2FE06C0B394B39425
:1009600004C08A2D867809F0B394A3FC11C0A0FEC0
:1009700006C0B21488F4280C922C9B180EC0B21436
:1009800060F4B60180E290E00E942C05B394F7CFAA
:10099000B21418F42B1802C0982C212CA4FE10C0FD
:1009A000B60180E390E00E942C05A2FE17C0A1FCD6
:1009B00003C088E790E002C088E590E0B6010CC073
:1009C0008A2D867859F0A1FE02C08BE201C080E238
:1009D000A7FC8DE2B60190E00E942C05891438F442
:1009E000B60180E390E00E942C059A94F7CF8A9498
:1009F000F301E80DF11D8081B60190E00E942C0505
:100A00008110F5CF222009F442CEB60180E290E0B9
:100A10000E942C052A94F6CFF6018681978102C0A8
:100A20008FEF9FEF2B96E2E10C94E205FC0105901D
:100A3000615070400110D8F7809590958E0F9F1FE0
:100A40000895FC016150704001900110D8F7809525
:100A500090958E0F9F1F08950F931F93CF93DF9351
:100A6000FB01238121FD03C08FEF9FEF2CC022FFEC
:100A700016C046815781248135814217530744F4BB
:100A8000A081B1819D012F5F3F4F318320838C93E3
:100A9000268137812F5F3F4F3783268314C08B0118
:100AA000EC01FB010084F185E02D0995892BE1F62D
:100AB000D80116968D919C911797019617969C9345
:100AC0008E931697CE01DF91CF911F910F910895CC
:100AD000FA01AA27283051F1203181F1E8946F936F
:100AE0006E7F6E5F7F4F8F4F9F4FAF4FB1E03ED015
:100AF000B4E03CD0670F781F891F9A1FA11D680FB3
:100B0000791F8A1F911DA11D6A0F711D811D911DE5
:100B1000A11D20D009F468943F912AE0269F11245A
:100B20003019305D3193DEF6CF010895462F4770BE
:100B3000405D4193B3E00FD0C9F7F6CF462F4F7019
:100B4000405D4A3318F0495D31FD4052419302D077
:100B5000A9F7EACFB4E0A69597958795779567951D
:100B6000BA95C9F700976105710508959B01AC011D
:100B70000A2E06945795479537952795BA95C9F744
:100B8000620F731F841F951FA01D08952F923F921F
:100B90004F925F926F927F928F929F92AF92BF928D
:100BA000CF92DF92EF92FF920F931F93CF93DF9339
:100BB000CDB7DEB7CA1BDB0B0FB6F894DEBF0FBE96
:100BC000CDBF09942A88398848885F846E847D84E3
:100BD0008C849B84AA84B984C884DF80EE80FD80E5
:100BE0000C811B81AA81B981CE0FD11D0FB6F8945B
:0E0BF000DEBF0FBECDBFED010895F894FFCF1C
:100BFE00257300536869667420726567697374653E
:100C0E00722044617461207365742E0A005B545225
:100C1E004143455D200053686966742072656769BB
:100C2E0073746572206369636C652073656E642EE0
:100C3E000A00536869667420726567697374657219
:100C4E002073657420646174612070696E20666122
:100C5E00696C65642E0A005B4552524F525D20004E
:100C6E005368696674207265676973746572206370
:100C7E0069636C65206661696C65640A00496E760D
:100C8E00616C696420706172616D65746572732048
:100C9E00666F722053484946545F707573685F7370
:100CAE00746174650A0053484946545F70757368E1
:100CBE00206661696C656420647572696E67207365
:100CCE007461746520707573680A0053746174657D
:100CDE002070757368656420746F2073686966741C
:100CEE002072656769737465720A00536869667469
:100CFE0020726567697374657220736574757020F0
:100D0E00444452206F66206461746120616E6420D9
:100D1E00636C6F636B0A0053686966742072656753
:100D2E00697374657220696E697469616C697A653C
:100D3E006420504F5254206F6620646174612061AC
:100D4E006E6420636C6F636B20746F206C6F770A18
:100D5E0000536869667420726567697374657220E2
:100D6E00696E6974206661696C656400496E7661AE
:100D7E006C6964206C696E6520666F6C6C6F77654C
:100D8E00722073656E736F7220696E6465783A2097
:100D9E0025750A004E554C4C20706F696E74657245
:100DAE002070617373656420746F204C465F6765B5
:100DBE00745F7374617465730A0052656164696E61
:100DCE006720616C6C206C696E6520666F6C6C6F51
:100DDE007765722073656E736F72207374617465BC
:100DEE00730A004C46302073746174653A2025698D
:100DFE000A004C46312073746174653A2025690AE5
:100E0E00004C46322073746174653A2025690A00DD
:100E1E0052656164696E67206C696E652073656EDC
:100E2E00736F7220737461746573206661696C658B
:100E3E0064202D2073656E736F72206572726F72EF
:100E4E00732064657465637465640A00555341527A
:100E5E005420776F726B696E672120486F6F7261D5
:100E6E0079210A005B494E464F5D20005368696642
:100E7E0074207265676973746572204444522073DE
:100E8E0065747570207375636365737366756C2E08
:100E9E000A005368696674207265676973746572B7
:100EAE0020444452207365747570204641494C4568
:100EBE0044210A004C696E652073656E736F722053
:100ECE004444522073657475702073756363657343
:100EDE007366756C2E0A004C696E652073656E73B1
:100EEE006F722044445220736574757020464149D8
:100EFE004C4544210A0053656E736F722072656112
:100F0E0064206661696C65640A005B5741524E5DF0
:020F1E002000B1
:00000001FF
