:100000000C9434000C9449000C9449000C94490061
:100010000C9449000C9449000C9449000C9449003C
:100020000C9449000C9449000C9449000C9449002C
:100030000C9449000C9449000C9449000C9449001C
:100040000C9449000C9449000C9449000C9449000C
:100050000C9449000C9449000C9449000C944900FC
:100060000C9449000C94490011241FBECFEFD8E036
:10007000DEBFCDBF12E0A0E0B1E0E2E8F2E002C0F6
:1000800005900D92A037B107D9F70E94FF000C949C
:100090003F010C9400002A98019709F42A9A80E005
:1000A00090E008955C985C9A5C9880E090E00895F8
:1000B000817099270E944B00892B39F080E091E0F4
:1000C0000E94E00081E090E008950E945200892B98
:1000D00039F08DE291E00E94E00082E090E0089526
:1000E00080E090E008950F931F93CF93DF938B01EF
:1000F00001501109660F771FEC01C60FD71F17FDBE
:1001000010C09A918A910E945800892B39F082E59B
:1001100091E00E94E00082E090E009C001501109E6
:10012000EECF8FE791E00E94E00080E090E0DF9169
:10013000CF911F910F910895009729F061157105D6
:1001400011F00C94730086EA91E00E94E00081E0D7
:1001500090E00895CF93DF9300D000D000D0CDB7CA
:10016000DEB7229A549A2A985C981A8219821C82C5
:100170001B821E821D8263E070E0CE0101960E9408
:100180007300009731F087ED91E00E94E00081E07C
:1001900090E026960FB6F894DEBF0FBECDBFDF917C
:1001A000CF9108958091C00087FFFCCF8091C60059
:1001B00008959091C00095FFFCCF8093C6000895EC
:1001C000CF93DF93EC018991882319F00E94D90025
:1001D000FACFDF91CF9108950F931F93072F182F18
:1001E000292F33270093C5006093C40088E18093D2
:1001F000C1008EE08093C2001F910F91089567E6C1
:1002000070E080E090E00E94EC008AEF91E00E94B4
:10021000E0000E94AA00892B19F489E192E002C053
:1002200086E492E00E94E00081E090E00E945800A5
:1002300080E090E00E94580081E090E00E94580029
:100240002FEF83ED90E3215080409040E1F700C014
:10025000000081E090E00E94580081E090E00E9460
:10026000580081E090E00E9458002FEF83ED90E36A
:10027000215080409040E1F700C00000D5CFF894B5
:02028000FFCFAE
:100282005B4552524F525D20536869667420726515
:100292006769737465722073657420646174612088
:1002A20070696E206661696C65642E0A005B455256
:1002B200524F525D20536869667420726567697394
:1002C200746572206369636C65206661696C65643C
:1002D2000A005B4552524F525D2053484946545FD3
:1002E20070757368206661696C65642064757269F3
:1002F2006E6720737461746520707573680A005BA1
:10030200494E464F5D205374617465207075736861
:10031200656420746F20736869667420726567690A
:10032200737465720A005B4552524F525D20496EEA
:1003320076616C696420706172616D657465727357
:1003420020666F722053484946545F707573685F28
:1003520073746174650A005B4552524F525D2053BB
:100362006869667420726567697374657220696E64
:100372006974206661696C6564005B494E464F5D35
:1003820020555341525420776F726B696E6721205A
:10039200486F6F726179210A005B494E464F5D20BA
:1003A2005368696674207265676973746572204464
:1003B200445220736574757020737563636573733B
:1003C20066756C2E0A005B4552524F525D2053688F
:1003D2006966742072656769737465722044445259
:1003E200207365747570204641494C4544210A00CA
:00000001FF
