:100000000C9434000C9449000C9449000C94490061
:100010000C9449000C9449000C9449000C9449003C
:100020000C9449000C9449000C9449000C9449002C
:100030000C9449000C9449000C9449000C9449001C
:100040000C9449000C9449000C9449000C9449000C
:100050000C9449000C9449000C9449000C944900FC
:100060000C9449000C94490011241FBECFEFD8E036
:10007000DEBFCDBF12E0A0E0B1E0ECE1F2E002C0F3
:1000800005900D92A83AB107D9F70E94D5000C94BB
:100090000C010C9400002A98019709F42A9A80E038
:1000A00091E00E94B60080E090E008955C985C9A30
:1000B0005C9882E291E00E94B60080E090E00895B2
:1000C000817099270E944B00892B39F086E491E0DA
:1000D0000E94B60081E090E008950E945600892BAE
:1000E00039F083E791E00E94B60082E090E0089545
:1000F00080E090E00895CF93DF93229A549A88E9A4
:1001000091E00E94B6002A985C988CEC91E00E94E5
:10011000B60080E090E00E946000EC0180E090E09A
:100120000E946000C82BD92B80E090E00E94600004
:100130008C2B9D2B892B39F08EE092E00E94B6002B
:1001400081E090E002C080E090E0DF91CF910895DF
:100150008091C00087FFFCCF8091C60008959091E8
:10016000C00095FFFCCF8093C6000895CF93DF9326
:10017000EC018991882319F00E94AF00FACFDF913A
:10018000CF9108950F931F93072F182F292F3327EF
:100190000093C5006093C40088E18093C1008EE0A5
:1001A0008093C2001F910F91089567E670E080E090
:1001B00090E00E94C20081E392E00E94B6000E949B
:1001C0007B00892B19F480E592E002C08DE792E074
:1001D0000E94B60081E090E00E94600080E090E024
:1001E0000E94600081E090E00E9460002FEF83EDAC
:1001F00090E3215080409040E1F700C0000081E092
:1002000090E00E94600081E090E00E94600081E048
:0C02100090E00E946000DECFF894FFCF69
:10021C005B54524143455D20536869667420726596
:10022C006769737465722044617461207365742E00
:10023C000A005B54524143455D2053686966742043
:10024C007265676973746572206369636C6520738A
:10025C00656E642E0A005B4552524F525D20536806
:10026C00696674207265676973746572207365744E
:10027C0020646174612070696E206661696C6564CC
:10028C002E0A005B4552524F525D205368696674CA
:10029C00207265676973746572206369636C65208D
:1002AC006661696C65640A005B54524143455D208C
:1002BC00536869667420726567697374657220731C
:1002CC006574757020444452206F662064617461BB
:1002DC0020616E6420636C6F636B0A005B54524147
:1002EC0043455D2053686966742072656769737451
:1002FC00657220696E697469616C697A65642050F5
:10030C004F5254206F66206461746120616E6420CA
:10031C00636C6F636B20746F206C6F770A005B45A6
:10032C0052524F525D20536869667420726567693A
:10033C007374657220696E6974206661696C65649A
:10034C00005B494E464F5D20555341525420776F08
:10035C00726B696E672120486F6F726179210A0098
:10036C005B494E464F5D2053686966742072656721
:10037C0069737465722044445220736574757020DF
:10038C007375636365737366756C2E0A005B4552F7
:10039C00524F525D205368696674207265676973A9
:1003AC007465722044445220736574757020464104
:0803BC00494C4544210A0000F0
:00000001FF
