:100000000C9434000C943E000C943E000C943E0082
:100010000C943E000C943E000C943E000C943E0068
:100020000C943E000C943E000C943E000C943E0058
:100030000C943E000C943E000C943E000C943E0048
:100040000C943E000C943E000C943E000C943E0038
:100050000C943E000C943E000C943E000C943E0028
:100060000C943E000C943E0011241FBECFEFD8E04C
:10007000DEBFCDBF0E9418010C9456010C94000005
:10008000FC0126B196B186B121702083118296952C
:1000900091709283138282FB882780F98483158272
:1000A00080E090E008951A98019709F41A9A80E088
:1000B00090E008955C985C9A5C9880E090E00895E8
:1000C000817099270E945300892B39F40E945A00AD
:1000D000892B31F480E090E0089581E090E008956C
:1000E00082E090E008950F931F93CF93DF938B01ED
:1000F00001501109660F771FEC01C60FD71F17FDBE
:1001000009C09A918A910E946000892B31F40150B4
:100110001109F5CF80E090E002C082E090E0DF912D
:10012000CF911F910F910895009729F061157105E6
:1001300011F00C94730081E090E00895CF93DF9369
:1001400000D000D000D0CDB7DEB7229A549A2A98BA
:100150005C981A8219821C821B821E821D8263E0B7
:1001600070E0CE0101960E94730021E030E0892BFF
:1001700011F420E030E0C90126960FB6F894DEBFF6
:100180000FBECDBFDF91CF910895389839983A9836
:10019000409A419A429A80E090E00895813091051A
:1001A00059F038F0029769F486B182FB882780F90C
:1001B00006C086B1817003C086B18695817090E0DB
:1001C00008958FEF9FEF0895009711F00C94400071
:1001D00082E090E008958091C00087FFFCCF80917D
:1001E000C60008959091C00095FFFCCF8093C60093
:1001F0000895CF93DF93EC018991882319F00E9431
:10020000F200FACFDF91CF9108950F931F93072F3C
:10021000182F292F33270093C5006093C40088E16D
:100220008093C1008EE08093C2001F910F910895CA
:10023000CF93DF9300D000D000D0CDB7DEB767E614
:1002400070E080E090E00E9405010E949E000E9404
:10025000C500CE0101967C0186E0F70111928A95D6
:10026000E9F7CC24CA94DC2CC7010E944000892BFA
:1002700019F086016801F8CF29813A810B811C8130
:10028000000F111FC801822B932B0D811E81000FBF
:10029000111F000F111F082B192BC016D10651F387
:1002A00063E070E0C7010E947300E4CFF894FFCFD1
:00000001FF
