:100000000C9434000C9451000C9451000C94510049
:100010000C9451000C9451000C9451000C9451001C
:100020000C9451000C9451000C9451000C9451000C
:100030000C9451000C9451000C9451000C945100FC
:100040000C9451000C9451000C9451000C945100EC
:100050000C9451000C9451000C9451000C945100DC
:100060000C9451000C94510011241FBECFEFD8E026
:10007000DEBFCDBF13E0A0E0B1E0E8E7FBE002C0E7
:1000800005900D92A23AB107D9F724E0A2EAB3E0B5
:1000900001C01D92A23AB207E1F70E9406020C9439
:1000A000BA050C9400000F931F93CF93DF93CDB745
:1000B000DEB78F8198859F938F9380E091E09F9327
:1000C0008F9381E08F931F9202EA13E01F930F93A7
:1000D0000E949602F80101900020E9F73197CF01C4
:1000E000825A934060E071E0681B790B9E01255FA6
:1000F0003F4F49855A858E559C4F0E94C602C801C4
:100100000E94E7010FB6F894DEBF0FBECDBFDF91AE
:10011000CF911F910F9108952A98019709F42A9A77
:1001200083E091E09F938F938DE191E09F938F9374
:100130000E9453000F900F900F900F9080E090E07E
:1001400008955C985C9A5C9886E291E09F938F9307
:100150008DE191E09F938F930E9453000F900F9039
:100160000F900F9080E090E00895817099270E9491
:100170008C00892B89F082E491E09F938F9387E62E
:1001800091E09F938F930E9453000F900F900F90D8
:100190000F9081E090E008950E94A100892B89F0E2
:1001A00080E791E09F938F9387E691E09F938F93F1
:1001B0000E9453000F900F900F900F9082E090E0FC
:1001C000089580E090E008950F931F93CF93DF93FD
:1001D000009719F06115710589F48DE891E09F93FE
:1001E0008F9387E691E09F938F930E9453000F9027
:1001F0000F900F900F9081E090E034C08B01015080
:100200001109660F771FEC01C60FD71F17FD1AC023
:100210009A918A910E94B500892B89F086EB91E032
:100220009F938F9387E691E09F938F930E94530053
:100230000F900F900F900F9082E090E013C001504C
:100240001109E4CF8BED91E09F938F938DE191E0C5
:100250009F938F930E9453000F900F900F900F90D9
:1002600080E090E0DF91CF911F910F9108950F935F
:100270001F93CF93DF9300D000D000D0CDB7DEB76F
:10028000229A549A8BEF91E09F938F930DE111E0A6
:100290001F930F930E9453002A985C9887E292E084
:1002A0009F938F931F930F930E9453001A8219827A
:1002B0001C821B821E821D8263E070E0CE010196CB
:1002C0000E94E4000FB6F894DEBF0FBECDBF892BAD
:1002D00089F081E692E09F938F9387E691E09F9368
:1002E0008F930E9453000F900F900F900F9081E01A
:1002F00090E002C080E090E026960FB6F894DEBF52
:100300000FBECDBFDF91CF911F910F910895813026
:10031000910561F038F0029779F488B183FB882762
:1003200080F908C088B18695817004C088B182FBCD
:10033000882780F990E008958FEF9FEF0895CF937D
:10034000DF93EC01892B89F48CE792E09F938F93E4
:1003500087E691E09F938F930E9453000F900F9038
:100360000F900F9082E090E021C082EA92E09F938C
:100370008F938DE191E09F938F930E94530028B15A
:1003800098B188B1269521702883198292FB99270C
:1003900090F99A831B8283FB882780F98C831D82C6
:1003A0000F900F900F900F9080E090E0DF91CF9131
:1003B00008958091C00087FFFCCF8091C60008950A
:1003C0009091C00095FFFCCF8093C6000895CF9315
:1003D000DF93EC018991882319F00E94E001FACFA4
:1003E000DF91CF9108950F931F93072F182F292F77
:1003F00033270093C5006093C40088E18093C10057
:100400008EE08093C2001F910F910895CF93DF93E8
:1004100000D000D000D0CDB7DEB767E670E080E056
:1004200090E00E94F3018BEC92E09F938F9303EE98
:1004300012E01F930F930E9453000E9437010F9008
:100440000F900F900F90892B39F48BEE92E09F93D1
:100450008F931F930F9308C081E193E09F938F9335
:1004600087E691E09F938F930E9453000F900F9027
:100470000F900F908E010F5F1F4F86E0F8011192D1
:100480008A95E9F783E7482E83E0582E99E9692E8B
:1004900093E0792E23E3E22E23E0F22E3DE1C32EFA
:1004A00031E0D32E4AE4A42E43E0B42E57E6852E45
:1004B00051E0952EC8010E949F01892B19F58E816C
:1004C0008F938D818F938C818F938B818F938A8172
:1004D0008F9389818F93FF92EF92DF92CF920E9448
:1004E000530063E070E0C8010E94E4000FB6F89486
:1004F000DEBF0FBECDBF892B79F0BF92AF929F9226
:100500008F9204C05F924F927F926F920E9453002D
:100510000F900F900F900F903FEF81EE94E03150CD
:1005200080409040E1F700C00000C4CFAEE0B0E0F2
:10053000ECE9F2E00C9491050D891E898F89988D64
:1005400026E02C831A83098397FF02C080E090E89D
:1005500001979E838D83AE01455E5F4F698D7A8DD5
:10056000CE0101960E94F2024D815E8157FD0AC0C4
:100570002F813885421753070CF49A01F801E20FD6
:10058000F31F10822E96E4E00C94AD05AEE0B0E0CF
:10059000ECECF2E00C9491058C01FA0186E08C837E
:1005A0001A83098377FF02C060E070E8CB010197EE
:1005B0009E838D83A901BF01CE0101960E94F202A4
:1005C0004D815E8157FD0AC02F8138854217530740
:1005D0000CF49A01F801E20FF31F10822E96E4E06A
:1005E0000C94AD05ABE0B0E0E8EFF2E00C948305CD
:1005F0006C017B018A01FC0117821682838181FFD5
:10060000CCC1CE0101963C01F6019381F70193FD27
:10061000859193FF81917F01882309F4BAC18532C6
:1006200039F493FD859193FF81917F01853229F4FF
:10063000B60190E00E94E904E7CF912C212C312CE7
:10064000FFE1F315D8F08B3279F038F4803279F08D
:100650008332A1F4232D20611DC08D3261F08033DF
:1006600069F4232D216016C0832D8260382EE32D7E
:10067000E4603E2E2AC0F32DF8601DC037FC2DC06B
:1006800020ED280F2A3040F08E32B9F436FC81C1BB
:10069000232D2064322E19C036FE06C08AE0989EB3
:1006A000200D1124922E11C0EAE02E9E200D11245F
:1006B000222EF32DF0623F2E08C08C3621F4832DBC
:1006C0008068382E02C0883641F4F70193FD859189
:1006D00093FF81917F018111B3CF982F9F7D955416
:1006E000933028F40C5F1F4F9FE399830DC083362E
:1006F00031F0833771F0833509F059C021C0F8011A
:10070000808189830E5F1F4F88248394912C53012D
:1007100013C02801F2E04F0E511CF801A080B180F7
:1007200036FE03C0692D70E002C06FEF7FEFC50198
:100730000E94DE044C018201F32DFF773F2E16C08C
:10074000280122E0420E511CF801A080B18036FE43
:1007500003C0692D70E002C06FEF7FEFC5010E94FA
:10076000D3044C01F32DF0683F2E820133FC1BC0F3
:10077000822D90E088169906B0F4B60180E290E0F0
:100780000E94E9042A94F4CFF50137FC859137FEE5
:1007900081915F01B60190E00E94E90421102A9442
:1007A00021E0821A91088114910471F7E8C084361F
:1007B00011F0893641F5F80137FE07C0608171817B
:1007C000828193810C5F1F4F08C060817181072E69
:1007D000000C880B990B0E5F1F4FF32DFF763F2EF9
:1007E00097FF09C090958095709561957F4F8F4FC9
:1007F0009F4FF0683F2E2AE030E0A3010E942505BC
:10080000882E861845C0853731F4232D2F7EB22ED1
:100810002AE030E025C0932D997FB92E8F36C1F0A4
:1008200018F4883579F0B5C0803719F0883721F091
:10083000B0C0E92FE061BE2EB4FE0DC0FB2DF46008
:10084000BF2E09C034FE0AC0292F2660B22E06C072
:1008500028E030E005C020E130E002C020E132E0D5
:10086000F801B7FE07C060817181828193810C5FBE
:100870001F4F06C06081718180E090E00E5F1F4FC6
:10088000A3010E942505882E8618FB2DFF773F2E99
:1008900036FE0DC0232D2E7FA22E891458F434FE6F
:1008A0000BC032FC09C0832D8E7EA82E05C0B82C4B
:1008B000A32C03C0B82C01C0B92CA4FE0FC0FE01AC
:1008C000E80DF11D8081803321F49A2D997EA92EA7
:1008D00009C0A2FE06C0B394B39404C08A2D8678E2
:1008E00009F0B394A3FC11C0A0FE06C0B21488F4B2
:1008F000280C922C9B180EC0B21460F4B60180E252
:1009000090E00E94E904B394F7CFB21418F42B18C6
:1009100002C0982C212CA4FE10C0B60180E390E008
:100920000E94E904A2FE17C0A1FC03C088E790E082
:1009300002C088E590E0B6010CC08A2D867859F097
:10094000A1FE02C08BE201C080E2A7FC8DE2B601ED
:1009500090E00E94E904891438F4B60180E390E045
:100960000E94E9049A94F7CF8A94F301E80DF11DEF
:100970008081B60190E00E94E9048110F5CF222029
:1009800009F442CEB60180E290E00E94E9042A9484
:10099000F6CFF6018681978102C08FEF9FEF2B96ED
:1009A000E2E10C949F05FC0105906150704001103C
:1009B000D8F7809590958E0F9F1F0895FC01615088
:1009C000704001900110D8F7809590958E0F9F1F71
:1009D00008950F931F93CF93DF93FB01238121FD94
:1009E00003C08FEF9FEF2CC022FF16C046815781B6
:1009F000248135814217530744F4A081B1819D01C0
:100A00002F5F3F4F318320838C93268137812F5F67
:100A10003F4F3783268314C08B01EC01FB01008418
:100A2000F185E02D0995892BE1F6D80116968D9177
:100A30009C911797019617969C938E931697CE01CB
:100A4000DF91CF911F910F910895FA01AA272830C5
:100A500051F1203181F1E8946F936E7F6E5F7F4F8B
:100A60008F4F9F4FAF4FB1E03ED0B4E03CD0670F07
:100A7000781F891F9A1FA11D680F791F8A1F911D5A
:100A8000A11D6A0F711D811D911DA11D20D009F4AA
:100A900068943F912AE0269F11243019305D3193EC
:100AA000DEF6CF010895462F4770405D4193B3E0D5
:100AB0000FD0C9F7F6CF462F4F70405D4A3318F07C
:100AC000495D31FD4052419302D0A9F7EACFB4E02D
:100AD000A6959795879577956795BA95C9F70097E5
:100AE0006105710508959B01AC010A2E0694579586
:100AF000479537952795BA95C9F7620F731F841FDD
:100B0000951FA01D08952F923F924F925F926F9272
:100B10007F928F929F92AF92BF92CF92DF92EF928D
:100B2000FF920F931F93CF93DF93CDB7DEB7CA1B0E
:100B3000DB0B0FB6F894DEBF0FBECDBF09942A8839
:100B4000398848885F846E847D848C849B84AA84E1
:100B5000B984C884DF80EE80FD800C811B81AA816E
:100B6000B981CE0FD11D0FB6F894DEBF0FBECDBF39
:080B7000ED010895F894FFCF98
:100B780025730053686966742072656769737465C4
:100B8800722044617461207365742E0A005B5452AC
:100B98004143455D20005368696674207265676942
:100BA80073746572206369636C652073656E642E67
:100BB8000A005368696674207265676973746572A0
:100BC8002073657420646174612070696E206661A9
:100BD800696C65642E0A005B4552524F525D2000D5
:100BE80053686966742072656769737465722063F7
:100BF80069636C65206661696C65640A00496E7694
:100C0800616C696420706172616D657465727320CE
:100C1800666F722053484946545F707573685F73F6
:100C2800746174650A0053484946545F7075736867
:100C3800206661696C656420647572696E672073EB
:100C48007461746520707573680A00537461746503
:100C58002070757368656420746F207368696674A2
:100C68002072656769737465720A005368696674EF
:100C78002072656769737465722073657475702076
:100C8800444452206F66206461746120616E642060
:100C9800636C6F636B0A00536869667420726567DA
:100CA800697374657220696E697469616C697A65C3
:100CB8006420504F5254206F662064617461206133
:100CC8006E6420636C6F636B20746F206C6F770A9F
:100CD8000053686966742072656769737465722069
:100CE800696E6974206661696C6564004E554C4C88
:100CF80020706F696E74657220706173736564200B
:100D0800746F204C465F6765745F737461746573B4
:100D18000A0052656164696E6720616C6C206C69B9
:100D28006E6520666F6C6C6F7765722073656E7385
:100D38006F72207374617465730A0055534152547D
:100D480020776F726B696E672120486F6F726179C7
:100D5800210A005B494E464F5D200053686966745E
:100D68002072656769737465722044445220736504
:100D7800747570207375636365737366756C2E0A7A
:100D880000536869667420726567697374657220B8
:100D9800444452207365747570204641494C45445B
:100DA800210A0053656E736F72733A205B25752CA8
:100DB8002025752C2025755D0A004661696C6564DF
:100DC80020746F2070757368207374617465732064
:100DD800746F2073686966742072656769737465D7
:100DE800720A0053656E736F7220726561642066C3
:100DF80061696C6564202D20736B697070696E671A
:100E0800207570646174650A005B5741524E5D201D
:020E18000000D8
:00000001FF
