:100000000C9434000C9451000C9451000C94510049
:100010000C9451000C9451000C9451000C9451001C
:100020000C9451000C9451000C9451000C9451000C
:100030000C9451000C9451000C9451000C945100FC
:100040000C9451000C9451000C9451000C945100EC
:100050000C9451000C9451000C9451000C945100DC
:100060000C9451000C94510011241FBECFEFD8E026
:10007000DEBFCDBF12E0A0E0B1E0E2E4FBE002C0F1
:1000800005900D92A03CB107D9F724E0A0ECB2E0B6
:1000900001C01D92A03CB207E1F70E9417020C9428
:1000A0009F050C940000CF93DF93CDB7DEB760E0DF
:1000B00071E080EC92E00E94870280EC92E0FC010B
:1000C00001900020E9F7CF01815C924060E071E08F
:1000D000681B790B9E01275F3F4F4F8158858054E5
:1000E0009D4F0E94BE0280EC92E00E948800DF914A
:1000F000CF9108958091C00087FFFCCF8091C6000A
:1001000008959091C00095FFFCCF8093C60008959C
:10011000CF93DF93EC018991811103C0DF91CF91DF
:1001200008950E948100F7CF0F931F93072F182F78
:10013000292F33270093C5006093C40088E1809382
:10014000C1008EE08093C2001F910F91089567E671
:1001500070E080E090E00C9494000F931F93CF9395
:10016000DF93CDB7DEB78F8198859F938F9386E31A
:1001700091E09F938F9381E08F931F9200EC13E0A7
:100180001F930F930E948E02F80101900020E9F75F
:10019000CF01815C934060E071E0681B790B9E01A8
:1001A000255F3F4F49855A8580549C4F0E94BE026F
:1001B000C8010E9488000FB6F894DEBF0FBECDBF05
:1001C000DF91CF911F910F9108955C985C9A5C9894
:1001D00089E391E09F938F9385E591E09F938F93BF
:1001E0000E94AD000F900F900F900F9090E080E074
:1001F0000895EF92FF920F931F93CF93DF932A9866
:100200008C010170112780FF31C02A9A1F930F9330
:100210008EE591E09F938F93C5E5D1E0DF93CF9377
:100220000E94AD000E94E5007C010F900F900F909E
:100230000F900F900F90892BD9F083E891E09F9356
:100240008F9380EA91E09F938F930E94AD000F906F
:100250000F900F900F9082E0E82EF12CC701DF91F4
:10026000CF911F910F91FF90EF9008952A98CECFD4
:100270001F930F9389EA91E09F938F93DF93CF931E
:100280000E94AD000F900F900F900F900F900F9065
:10029000E5CFCF92DF92EF92FF920F931F93CF9310
:1002A000DF93EC018B01892B11F0672BC9F489ECEA
:1002B00091E09F938F9380EA91E09F938F930E94A8
:1002C000AD000F900F900F900F9081E090E0DF91C4
:1002D000CF911F910F91FF90EF90DF90CF900895F5
:1002E00082EF91E09F938F9385E591E09F938F93A9
:1002F0000E94AD00780181E0E81AF108000F111F9B
:10030000C00FD11F0F900F900F900F900FE112E0D0
:1003100095E5C92E91E0D92EF7FE11C083E292E057
:100320009F938F9385E591E09F938F930E94AD00FB
:100330000F900F900F900F9090E080E0C8CF9A91AF
:100340008A910E94F900892B89F08AEF91E09F93AE
:100350008F9380EA91E09F938F930E94AD000F905E
:100360000F900F900F9082E090E0B1CF89818F9332
:1003700088818F931F930F93DF92CF920E94AD00DD
:1003800081E0E81AF1080F900F900F900F900F90F6
:100390000F90C2CF0F931F93CF93DF9300D000D065
:1003A00000D0CDB7DEB7229A549A8FE392E09F93A4
:1003B0008F9305E511E01F930F930E94AD002A98DB
:1003C0005C988BE692E09F938F931F930F930E940C
:1003D000AD001A8219821C821B821E821D8263E07C
:1003E00070E0CE0101960E9449010FB6F894DEBF7D
:1003F0000FBECDBF009781F085EA92E09F938F9367
:1004000080EA91E09F938F930E94AD000F900F9030
:100410000F900F9081E090E026960FB6F894DEBF23
:100420000FBECDBFDF91CF911F910F9108950E9414
:10043000A7000E94CA01529888E0E82E81E0F82EB9
:10044000FF92EF92C0E0D1E0DF93CF930E94530080
:100450005A9A08E111E01F930F93DF93CF930E9404
:1004600053005798FF92EF92DF93CF930E9453006F
:100470005F9A1F930F93DF93CF930E94530089B12C
:100480002DB73EB7205F3F4F0FB6F8943EBF0FBE6B
:100490002DBF90E080E00E94F90090E080E00E9493
:1004A000F90090E080E00E94F9003FEF87EA91E6D2
:1004B000315080409040E1F700C0000081E090E0C2
:1004C0000E94F9002FEF37EA81E62150304080404A
:1004D000E1F700C0000090E080E00E94F9009FEF8B
:1004E00027EA31E6915020403040E1F700C000009B
:1004F00081E090E00E94F9008AEA96EE26E931E078
:100500008150904020403040D9F70000C2CFFB011D
:10051000DC0101900D920020E1F70895AEE0B0E01B
:10052000E4E9F2E00C9476050D891E898F89988D97
:1005300026E02C831A83098397FF02C080E090E8AD
:1005400001979E838D83AE01455E5F4F698D7A8DE5
:10055000CE0101960E94EA024D815E8157FD0AC0DC
:100560002F813885421753070CF49A01020F131F8D
:10057000F80110822E96E4E00C949205AEE0B0E013
:10058000E4ECF2E00C9476058C01FA0186E08C83B1
:100590001A83098377FF02C060E070E86150710937
:1005A0007E836D83A901BF01CE0101960E94EA02FC
:1005B0004D815E8157FD0AC02F8138854217530750
:1005C0000CF49A01020F131FF80110822E96E4E03A
:1005D0000C949205ABE0B0E0E0EFF2E00C9468051B
:1005E0007C013B018A01FC0117821682838181FF15
:1005F000C8C1CE0101965C01F7019381F30193FD1F
:10060000859193FF81913F01882309F453C185327D
:1006100039F493FD859193FF81913F01853229F44F
:10062000B70190E00E94DA04E7CF912C212C312C05
:10063000FFE1F31538F08B3211F190F4803209F1BB
:10064000833229F137FC3CC020ED280F2A3050F5C9
:1006500036FE20C08AE0989E200D1124922E06C0FE
:100660008D3291F0803371F7689430F8F30193FD87
:10067000859193FF81913F018111DACF21C0689468
:1006800031F8689432F8F2CF689433F8EFCF689479
:1006900034F8ECCFEAE02E9E200D1124222E68942F
:1006A00035F8E4CF8E3229F436FC04C1689436F86C
:1006B000DDCF8C3619F4689437F8D8CF8836B1F28C
:1006C000982F9F7D95549330E0F08336A1F18337C6
:1006D000C1F1833509F063C02801F2E04F0E511CCF
:1006E000F801C080D180692D70E036FC02C06FEF48
:1006F0007FEFC6010E94C4044C01689437F8820160
:100700000AC00C5F1F4FFFE3F98388248394912C68
:100710006501E89437F833FE2DC0522C8114910402
:1007200071F5552009F468CFB70180E290E00E948E
:10073000DA045A94F6CFF801808189830E5F1F4F47
:10074000E4CF2801F2E04F0E511CF801C080D180A7
:10075000692D70E036FC02C06FEF7FEFC6010E948A
:10076000CF044C018201D5CFB70180E290E00E9416
:10077000DA042A942814190409F0B0F7CECFF60150
:1007800037FC859137FE81916F01B70190E00E949F
:10079000DA0451105A94F1E08F1A9108BFCF8436D1
:1007A00019F0893609F077C0F80137FE6BC0608117
:1007B0007181828193810C5F1F4FF32DFF763F2E55
:1007C00097FF09C090958095709561957F4F8F4FE9
:1007D0009F4F689437F82AE030E0A5010E940A058F
:1007E000C82ECA188C2C432C36FE0CC0E89440F856
:1007F000C91440F434FE05C032FC03C0F32DFE7E64
:100800004F2E892C44FE95C0FE01EC0DF11D808118
:10081000803309F087C0242D297E422E842D8870D4
:10082000582E43FC95C040FE8FC09C2C821418F4B7
:100830002C0C922C981844FE91C0B70180E390E0F4
:100840000E94DA0442FE09C088E790E041FE02C03F
:1008500088E590E0B7010E94DA04C91408F48AC060
:10086000CA94D12C9FEFC91AD90ACA0CDB1CF60115
:1008700082916F01B70190E00E94DA04AC14BD04CC
:10088000B1F74FCF60817181072E000C880B990B57
:100890000E5F1F4F92CFD32CE894D4F82AE030E0BB
:1008A000853739F1232D297FD22E8F3601F148F477
:1008B0008835A9F0F701868197812B96E2E10C94A7
:1008C0008405803749F08837A9F7D4FE02C06894C0
:1008D000D2F820E130E00DC06894D4F8F6CF34FEB1
:1008E00003C0822F8660D82E20E132E002C028E0CB
:1008F00030E0F801D7FE0FC0608171818281938161
:100900000C5F1F4FA5010E940A05C82ECA183D2C76
:10091000E89437F867CF6081718190E080E00E5FE6
:100920001F4FF0CF42FC02C0839478CF839483940E
:1009300075CF842D867809F471CFF6CFB70180E2A8
:1009400090E00E94DA0483948214C0F3512C73CF98
:10095000522C5818821408F46ECFF8CF842D867864
:1009600009F47BCF8BE241FE80E247FC8DE2B701C8
:1009700090E071CFB70180E390E00E94DA049A948E
:100980006CCF8FEF9FEF99CFFC01059061507040C5
:100990000110D8F7809590958E0F9F1F0895FC0148
:1009A0006150704001900110D8F7809590958E0F9E
:1009B0009F1F08950F931F93CF93DF93182F092F35
:1009C000EB018B8181FD09C01FEF0FEF812F902F6D
:1009D000DF91CF911F910F91089582FF14C02E8156
:1009E0003F818C819D81281739073CF4E881F9818A
:1009F000CF0101969983888310838E819F81019610
:100A00009F838E83E3CFE885F985812F0995892B14
:100A1000A1F3DACFFA01AA27283051F1203181F170
:100A2000E8946F936E7F6E5F7F4F8F4F9F4FAF4FF6
:100A3000B1E03ED0B4E03CD0670F781F891F9A1F09
:100A4000A11D680F791F8A1F911DA11D6A0F711DBD
:100A5000811D911DA11D20D009F468943F912AE0C9
:100A6000269F11243019305D3193DEF6CF010895B1
:100A7000462F4770405D4193B3E00FD0C9F7F6CFE2
:100A8000462F4F70405D4A3318F0495D31FD4052AA
:100A9000419302D0A9F7EACFB4E0A6959795879540
:100AA00077956795BA95C9F700976105710508951F
:100AB0009B01AC010A2E06945795479537952795CB
:100AC000BA95C9F7620F731F841F951FA01D089563
:100AD0002F923F924F925F926F927F928F929F924E
:100AE000AF92BF92CF92DF92EF92FF920F931F933C
:100AF000CF93DF93CDB7DEB7CA1BDB0B0FB6F894ED
:100B0000DEBF0FBECDBF09942A88398848885F842C
:100B10006E847D848C849B84AA84B984C884DF809D
:100B2000EE80FD800C811B81AA81B981CE0FD11D81
:100B30000FB6F894DEBF0FBECDBFED010895F89457
:020B4000FFCFE5
:100B42005B494E464F5D2000427574746F6E2044BF
:100B52004452207365740A00427574746F6E20509B
:100B62004F52542073657420746F2070756C6C2D15
:100B7200646F776E0A002573005368696674207289
:100B820065676973746572206369636C6520736558
:100B92006E642E0A005B54524143455D2000536847
:100BA2006966742072656769737465722064617422
:100BB2006120504F52542073657420746F20257544
:100BC2002E0A0053686966742072656769737465DA
:100BD20072206369636C65206661696C65640A00F2
:100BE2005B4552524F525D20005368696674207211
:100BF2006567697374657220646174652025752068
:100C02007075736865642E0A00496E76616C69645A
:100C120020706172616D657465727320666F7220F7
:100C220053484946545F707573685F7374617465A5
:100C32000A005374617465205B0053484946545F4F
:100C420070757368206661696C6564206475726989
:100C52006E6720737461746520707573680A00256D
:100C6200752C005D2070757368656420746F207345
:100C7200686966742072656769737465720A0053E5
:100C8200686966742072656769737465722073653A
:100C920074757020444452206F6620646174612030
:100CA200616E6420636C6F636B0A005368696674DB
:100CB20020726567697374657220696E697469610F
:100CC2006C697A656420504F5254206F66206461CB
:100CD200746120616E6420636C6F636B20746F209B
:100CE2006C6F770A0053686966742072656769736E
:100CF20074657220696E6974206661696C6564004E
:00000001FF
