:100000000C9434000C943E000C943E000C943E0082
:100010000C943E000C943E000C943E000C943E0068
:100020000C943E000C943E000C943E000C943E0058
:100030000C943E000C943E000C943E000C943E0048
:100040000C943E000C943E000C943E000C943E0038
:100050000C943E000C943E000C943E000C943E0028
:100060000C943E000C943E0011241FBECFEFD8E04C
:10007000DEBFCDBF0E94DE000C9405010C94000091
:100080008091C00087FFFCCF8091C60008959091B9
:10009000C00095FFFCCF8093C6000895CF93DF93F7
:1000A000EC018991811103C0DF91CF9108950E94E5
:1000B0004700F7CF0F931F93072F182F292F3327B0
:1000C0000093C5006093C40088E18093C1008EE076
:1000D0008093C2001F910F91089567E670E080E061
:1000E00090E00C945A005C985C9A85E08A95F1F750
:1000F00000005C9885E08A95F1F7000090E080E0D0
:10010000089580FF0EC02A9A25E02A95F1F7000095
:100110000E947300009739F425E02A95F1F700005A
:1001200008952A98F1CF82E090E008950F931F93ED
:10013000CF93DF930097E9F061157105D1F08B0142
:1001400001501109660F771FEC01C60FD71F17FF6B
:1001500007C090E080E0DF91CF911F910F9108954B
:100160009A918A910E948100892B31F401501109E2
:10017000EECF81E090E0EFCF82E090E0ECCF229AEA
:10018000549A2A985C9890E080E00E948100892B24
:1001900019F081E090E0089590E080E00E948100F5
:1001A000892BB9F790E080E00E94810031E020E0E7
:1001B000892B09F430E0832F922F08950E946D005F
:1001C0000E94BF0052985A9A57985F9A89B1082E98
:1001D000000C990B80959095292F221F2227221F12
:1001E00030E0C1E089B182FB882780F98C274F99E4
:1001F00009C021153105B1F790E00E94810021E08E
:0E02000030E0F0CF30E020E0EDCFF894FFCFFB
:00000001FF
