:100000000C9434000C943E000C943E000C943E0082
:100010000C943E000C943E000C943E000C943E0068
:100020000C943E000C943E000C943E000C943E0058
:100030000C943E000C943E000C943E000C943E0048
:100040000C943E000C943E000C943E000C943E0038
:100050000C943E000C943E000C943E000C943E0028
:100060000C943E000C943E0011241FBECFEFD8E04C
:10007000DEBFCDBF0E94CE000C94E8000C940000BF
:100080008091C00087FFFCCF8091C60008959091B9
:10009000C00095FFFCCF8093C6000895CF93DF93F7
:1000A000EC018991811103C0DF91CF9108950E94E5
:1000B0004700F7CF0F931F93072F182F292F3327B0
:1000C0000093C5006093C40088E18093C1008EE076
:1000D0008093C2001F910F91089567E670E080E061
:1000E00090E00C945A005C985C9A5C9890E080E0F8
:1000F00008952A9880FF08C02A9A0E9473000097EA
:1001000011F082E090E008952A98F7CF0F931F93A3
:10011000CF93DF930097E9F061157105D1F08B0162
:1001200001501109660F771FEC01C60FD71F17FF8B
:1001300007C090E080E0DF91CF911F910F9108956B
:100140009A918A910E947900892B31F4015011090A
:10015000EECF81E090E0EFCF82E090E0ECCF229A0A
:10016000549A2A985C9890E080E00E947900892B4C
:1001700019F081E090E0089590E080E00E9479001D
:10018000892BB9F790E080E00E94790031E020E00F
:10019000892B09F430E0832F922F08950E946D007F
:1001A0000E94AF0052985A9A89B14A9B0EC081E0D2
:1001B00090E00E9479002FEF87EA91E6215080407D
:1001C0009040E1F700C00000F0CF90E080E0F1CF78
:0401D000F894FFCFD1
:00000001FF
