:100000000C9434000C9451000C9451000C94510049
:100010000C9451000C9451000C9451000C9451001C
:100020000C9451000C9451000C9451000C9451000C
:100030000C9451000C9451000C9451000C945100FC
:100040000C9451000C9451000C9451000C945100EC
:100050000C9451000C9451000C9451000C945100DC
:100060000C9451000C94510011241FBECFEFD8E026
:10007000DEBFCDBF11E0A0E0B1E0E0E4F9E002C0F6
:1000800005900D92A63CB107D9F723E0A6ECB1E0AC
:1000900001C01D92A63CB207E1F70E946C010C94CE
:1000A0009E040C940000CF93DF93CDB7DEB760E0E1
:1000B00071E086EC91E00E94B60186EC91E0FC01D3
:1000C00001900020E9F7CF01875C914060E071E08A
:1000D000681B790B9E01275F3F4F4F8158858A53DC
:1000E0009E4F0E94BD0186EC91E00E948800DF9146
:1000F000CF9108958091C00087FFFCCF8091C6000A
:1001000008959091C00095FFFCCF8093C60008959C
:10011000CF93DF93EC018991811103C0DF91CF91DF
:1001200008950E948100F7CF0F931F93072F182F78
:10013000292F33270093C5006093C40088E1809382
:10014000C1008EE08093C2001F910F91089567E671
:1001500070E080E090E00C949400CF93DF93CDB7F3
:10016000DEB766E371E086EC92E00E94B60186ECB1
:1001700092E0FC0101900020E9F7CF01875C9240FA
:1001800060E071E0681B790B9E01275F3F4F4F8154
:1001900058858A539D4F0E94BD0186EC92E00E94D3
:1001A0008800DF91CF9108955C985C9A5C9890E00C
:1001B00080E008952A9880FF16C02A9A0E94D400F1
:1001C000009781F08FE391E09F938F9386E391E016
:1001D0009F938F930E94AD000F900F900F900F9000
:1001E00082E090E008952A98E9CF0F931F93CF9370
:1001F000DF93009719F061157105A9F48CE591E082
:100200009F938F9386E391E09F938F930E94AD001D
:100210000F900F900F900F9081E090E0DF91CF91C1
:100220001F910F9108958B0101501109660F771FDF
:10023000EC01C60FD71F17FF03C090E080E0EECFA0
:100240009A918A910E94DA00892B89F085E891E0E1
:100250009F938F9386E391E09F938F930E94AD00CD
:100260000F900F900F900F9082E090E0D7CF015049
:100270001109E1CFCF93DF9300D000D000D0CDB7EC
:10028000DEB7229A549A2A985C981A8219821C82A4
:100290001B821E821D8263E070E0CE0101960E94E7
:1002A000F500009781F08AEA91E09F938F9386E3AF
:1002B00091E09F938F930E94AD000F900F900F904D
:1002C0000F9081E090E026960FB6F894DEBF0FBE47
:1002D000CDBFDF91CF9108950E94A7000E943A01FF
:1002E000529888E091E09F938F93C0E0D1E0DF9334
:1002F000CF930E9453005A9A88E191E09F938F9385
:10030000DF93CF930E94530089B18DB79EB70896B3
:100310000FB6F8949EBF0FBE8DBFD0E0C0E003E0E3
:1003200010E0CE01B8010E94A2010E94DA002196DD
:100330009FEF23ED80E3915020408040E1F700C023
:100340000000EFCFAA1BBB1B51E107C0AA1FBB1FB8
:10035000A617B70710F0A61BB70B881F991F5A9551
:10036000A9F780959095BC01CD010895FB01DC01B2
:1003700001900D920020E1F70895AEE0B0E0E3ECCB
:10038000F1E00C9475048C01FA0186E08C831A83E9
:10039000098377FF02C060E070E8615071097E83D5
:1003A0006D83A901BF01CE0101960E94E9014D8133
:1003B0005E8157FD0AC02F813885421753070CF420
:1003C0009A01020F131FF80110822E96E4E00C949C
:1003D0009104ABE0B0E0EFEEF1E00C9467047C0137
:1003E0003B018A01FC0117821682838181FFC8C10B
:1003F000CE0101965C01F7019381F30193FD859194
:1004000093FF81913F01882309F453C1853239F468
:1004100093FD859193FF81913F01853229F4B701C6
:1004200090E00E94D903E7CF912C212C312CFFE1E1
:10043000F31538F08B3211F190F4803209F18332E8
:1004400029F137FC3CC020ED280F2A3050F536FE4C
:1004500020C08AE0989E200D1124922E06C08D3275
:1004600091F0803371F7689430F8F30193FD859132
:1004700093FF81913F018111DACF21C0689431F857
:10048000689432F8F2CF689433F8EFCF689434F878
:10049000ECCFEAE02E9E200D1124222E689435F830
:1004A000E4CF8E3229F436FC04C1689436F8DDCFEF
:1004B0008C3619F4689437F8D8CF8836B1F2982F73
:1004C0009F7D95549330E0F08336A1F18337C1F1DD
:1004D000833509F063C02801F2E04F0E511CF8018A
:1004E000C080D180692D70E036FC02C06FEF7FEFD5
:1004F000C6010E94C3034C01689437F882010AC008
:100500000C5F1F4FFFE3F98388248394912C6501CE
:10051000E89437F833FE2DC0522C8114910471F504
:10052000552009F468CFB70180E290E00E94D9031A
:100530005A94F6CFF801808189830E5F1F4FE4CF74
:100540002801F2E04F0E511CF801C080D180692DC6
:1005500070E036FC02C06FEF7FEFC6010E94CE0351
:100560004C018201D5CFB70180E290E00E94D9030F
:100570002A942814190409F0B0F7CECFF60137FCFD
:10058000859137FE81916F01B70190E00E94D903F8
:1005900051105A94F1E08F1A9108BFCF843619F0A8
:1005A000893609F077C0F80137FE6BC06081718130
:1005B000828193810C5F1F4FF32DFF763F2E97FFB3
:1005C00009C090958095709561957F4F8F4F9F4F93
:1005D000689437F82AE030E0A5010E940904C82E8B
:1005E000CA188C2C432C36FE0CC0E89440F8C91471
:1005F00040F434FE05C032FC03C0F32DFE7E4F2EC6
:10060000892C44FE95C0FE01EC0DF11D80818033E4
:1006100009F087C0242D297E422E842D8870582E03
:1006200043FC95C040FE8FC09C2C821418F42C0C07
:10063000922C981844FE91C0B70180E390E00E948C
:10064000D90342FE09C088E790E041FE02C088E578
:1006500090E0B7010E94D903C91408F48AC0CA9473
:10066000D12C9FEFC91AD90ACA0CDB1CF601829162
:100670006F01B70190E00E94D903AC14BD04B1F73B
:100680004FCF60817181072E000C880B990B0E5F94
:100690001F4F92CFD32CE894D4F82AE030E085376E
:1006A00039F1232D297FD22E8F3601F148F4883578
:1006B000A9F0F701868197812B96E2E10C948304DF
:1006C000803749F08837A9F7D4FE02C06894D2F881
:1006D00020E130E00DC06894D4F8F6CF34FE03C0BA
:1006E000822F8660D82E20E132E002C028E030E080
:1006F000F801D7FE0FC060817181828193810C5F08
:100700001F4FA5010E940904C82ECA183D2CE89469
:1007100037F867CF6081718190E080E00E5F1F4FF6
:10072000F0CF42FC02C0839478CF8394839475CF3A
:10073000842D867809F471CFF6CFB70180E290E07E
:100740000E94D90383948214C0F3512C73CF522C8E
:100750005818821408F46ECFF8CF842D867809F4E7
:100760007BCF8BE241FE80E247FC8DE2B70190E057
:1007700071CFB70180E390E00E94D9039A946CCFC7
:100780008FEF9FEF99CFFC010590615070400110F1
:10079000D8F7809590958E0F9F1F0895FC016150AA
:1007A000704001900110D8F7809590958E0F9F1F93
:1007B00008950F931F93CF93DF93182F092FEB0109
:1007C0008B8181FD09C01FEF0FEF812F902FDF91EB
:1007D000CF911F910F91089582FF14C02E813F8108
:1007E0008C819D81281739073CF4E881F981CF017C
:1007F00001969983888310838E819F8101969F83C0
:100800008E83E3CFE885F985812F0995892BA1F3A4
:10081000DACFFA01AA27283051F1203181F1E8948A
:100820006F936E7F6E5F7F4F8F4F9F4FAF4FB1E0E3
:100830003ED0B4E03CD0670F781F891F9A1FA11DDE
:10084000680F791F8A1F911DA11D6A0F711D811DDF
:10085000911DA11D20D009F468943F912AE0269FA4
:1008600011243019305D3193DEF6CF010895462F03
:100870004770405D4193B3E00FD0C9F7F6CF462FE4
:100880004F70405D4A3318F0495D31FD405241934D
:1008900002D0A9F7EACFB4E0A6959795879577950A
:1008A0006795BA95C9F700976105710508959B0191
:1008B000AC010A2E06945795479537952795BA951A
:1008C000C9F7620F731F841F951FA01D08952F92F3
:1008D0003F924F925F926F927F928F929F92AF92D0
:1008E000BF92CF92DF92EF92FF920F931F93CF931D
:1008F000DF93CDB7DEB7CA1BDB0B0FB6F894DEBFB4
:100900000FBECDBF09942A88398848885F846E84D9
:100910007D848C849B84AA84B984C884DF80EE8023
:10092000FD800C811B81AA81B981CE0FD11D0FB62C
:10093000F894DEBF0FBECDBFED010895F894FFCF50
:100940005B494E464F5D2000427574746F6E2044C3
:100950004452207365740A00427574746F6E20509F
:100960004F52542073657420746F2070756C6C2D19
:10097000646F776E0A005B4552524F525D20005300
:10098000686966742072656769737465722063694B
:10099000636C65206661696C65640A00496E766106
:1009A0006C696420706172616D6574657273206634
:1009B0006F722053484946545F707573685F737453
:1009C0006174650A0053484946545F707573682026
:1009D0006661696C656420647572696E6720737402
:1009E00061746520707573680A00536869667420C5
:1009F000726567697374657220696E6974206661D7
:060A0000696C6564000052
:00000001FF
